{
  "contractName": "Certificate",
  "abi": [
    {
      "inputs": [],
      "stateMutability": "nonpayable",
      "type": "constructor"
    },
    {
      "anonymous": false,
      "inputs": [
        {
          "indexed": false,
          "internalType": "string",
          "name": "fileHash",
          "type": "string"
        },
        {
          "indexed": false,
          "internalType": "string",
          "name": "studentName",
          "type": "string"
        },
        {
          "indexed": false,
          "internalType": "string",
          "name": "certificateTitle",
          "type": "string"
        }
      ],
      "name": "CertificateRegistered",
      "type": "event"
    },
    {
      "anonymous": false,
      "inputs": [
        {
          "indexed": false,
          "internalType": "string",
          "name": "fileHash",
          "type": "string"
        },
        {
          "indexed": false,
          "internalType": "bool",
          "name": "isOriginal",
          "type": "bool"
        }
      ],
      "name": "CertificateVerified",
      "type": "event"
    },
    {
      "inputs": [
        {
          "internalType": "string",
          "name": "studentName",
          "type": "string"
        },
        {
          "internalType": "string",
          "name": "certificateTitle",
          "type": "string"
        },
        {
          "internalType": "string",
          "name": "fileHash",
          "type": "string"
        }
      ],
      "name": "registerCertificate",
      "outputs": [],
      "stateMutability": "nonpayable",
      "type": "function"
    },
    {
      "inputs": [
        {
          "internalType": "string",
          "name": "fileHash",
          "type": "string"
        }
      ],
      "name": "verifyCertificate",
      "outputs": [
        {
          "internalType": "bool",
          "name": "",
          "type": "bool"
        }
      ],
      "stateMutability": "nonpayable",
      "type": "function"
    },
    {
      "inputs": [
        {
          "internalType": "string",
          "name": "fileHash",
          "type": "string"
        }
      ],
      "name": "getStudentName",
      "outputs": [
        {
          "internalType": "string",
          "name": "",
          "type": "string"
        }
      ],
      "stateMutability": "view",
      "type": "function",
      "constant": true
    },
    {
      "inputs": [
        {
          "internalType": "string",
          "name": "fileHash",
          "type": "string"
        }
      ],
      "name": "getCertificateTitle",
      "outputs": [
        {
          "internalType": "string",
          "name": "",
          "type": "string"
        }
      ],
      "stateMutability": "view",
      "type": "function",
      "constant": true
    },
    {
      "inputs": [],
      "name": "getAllCertificates",
      "outputs": [
        {
          "components": [
            {
              "internalType": "string",
              "name": "studentName",
              "type": "string"
            },
            {
              "internalType": "string",
              "name": "certificateTitle",
              "type": "string"
            },
            {
              "internalType": "string",
              "name": "fileHash",
              "type": "string"
            },
            {
              "internalType": "bool",
              "name": "isValid",
              "type": "bool"
            }
          ],
          "internalType": "struct Certificate.CertificateDetails[]",
          "name": "",
          "type": "tuple[]"
        }
      ],
      "stateMutability": "view",
      "type": "function",
      "constant": true
    }
  ],
  "bytecode": "0x608060405234801561001057600080fd5b5033600260006101000a81548173ffffffffffffffffffffffffffffffffffffffff021916908373ffffffffffffffffffffffffffffffffffffffff160217905550611229806100616000396000f3fe608060405234801561001057600080fd5b50600436106100575760003560e01c806313fcfe801461005c5780631a1f23a01461007a5780638b23d875146100aa578063d6a12e6c146100da578063f317d020146100f6575b600080fd5b610064610126565b6040516100719190610e75565b60405180910390f35b610094600480360381019061008f9190610abf565b6104e7565b6040516100a19190610eb2565b60405180910390f35b6100c460048036038101906100bf9190610abf565b610608565b6040516100d19190610e97565b60405180910390f35b6100f460048036038101906100ef9190610b00565b61067e565b005b610110600480360381019061010b9190610abf565b610869565b60405161011d9190610eb2565b60405180910390f35b60606000600180549050905060008167ffffffffffffffff811115610174577f4e487b7100000000000000000000000000000000000000000000000000000000600052604160045260246000fd5b6040519080825280602002602001820160405280156101ad57816020015b61019a61098a565b8152602001906001900390816101925790505b50905060005b828110156104de576000600182815481106101f7577f4e487b7100000000000000000000000000000000000000000000000000000000600052603260045260246000fd5b90600052602060002001805461020c906110da565b80601f0160208091040260200160405190810160405280929190818152602001828054610238906110da565b80156102855780601f1061025a57610100808354040283529160200191610285565b820191906000526020600020905b81548152906001019060200180831161026857829003601f168201915b5050505050905060008160405161029c9190610e5e565b90815260200160405180910390206040518060800160405290816000820180546102c5906110da565b80601f01602080910402602001604051908101604052809291908181526020018280546102f1906110da565b801561033e5780601f106103135761010080835404028352916020019161033e565b820191906000526020600020905b81548152906001019060200180831161032157829003601f168201915b50505050508152602001600182018054610357906110da565b80601f0160208091040260200160405190810160405280929190818152602001828054610383906110da565b80156103d05780601f106103a5576101008083540402835291602001916103d0565b820191906000526020600020905b8154815290600101906020018083116103b357829003601f168201915b505050505081526020016002820180546103e9906110da565b80601f0160208091040260200160405190810160405280929190818152602001828054610415906110da565b80156104625780601f1061043757610100808354040283529160200191610462565b820191906000526020600020905b81548152906001019060200180831161044557829003601f168201915b505050505081526020016003820160009054906101000a900460ff1615151515815250508383815181106104bf577f4e487b7100000000000000000000000000000000000000000000000000000000600052603260045260246000fd5b60200260200101819052505080806104d69061110c565b9150506101b3565b50809250505090565b60606000826040516104f99190610e5e565b908152602001604051809103902060030160009054906101000a900460ff16610557576040517f08c379a000000000000000000000000000000000000000000000000000000000815260040161054e90610f50565b60405180910390fd5b6000826040516105679190610e5e565b90815260200160405180910390206001018054610583906110da565b80601f01602080910402602001604051908101604052809291908181526020018280546105af906110da565b80156105fc5780601f106105d1576101008083540402835291602001916105fc565b820191906000526020600020905b8154815290600101906020018083116105df57829003601f168201915b50505050509050919050565b60008060008360405161061b9190610e5e565b908152602001604051809103902060030160009054906101000a900460ff1690507f1a48be0d899f93d12824892836eea7aee0260894c1847adb8b7f4c9f86aaee37838260405161066d929190610ed4565b60405180910390a180915050919050565b60008151116106c2576040517f08c379a00000000000000000000000000000000000000000000000000000000081526004016106b990610f70565b60405180910390fd5b6000816040516106d29190610e5e565b908152602001604051809103902060030160009054906101000a900460ff1615610731576040517f08c379a000000000000000000000000000000000000000000000000000000000815260040161072890610f90565b60405180910390fd5b6040518060800160405280848152602001838152602001828152602001600115158152506000826040516107659190610e5e565b9081526020016040518091039020600082015181600001908051906020019061078f9291906109b4565b5060208201518160010190805190602001906107ac9291906109b4565b5060408201518160020190805190602001906107c99291906109b4565b5060608201518160030160006101000a81548160ff0219169083151502179055509050506001819080600181540180825580915050600190039060005260206000200160009091909190915090805190602001906108289291906109b4565b507fa8c9a80654a8b70efd2411a076ca8d55b1ed22d036b4e24d1bf2a2375ed9491f81848460405161085c93929190610f04565b60405180910390a1505050565b606060008260405161087b9190610e5e565b908152602001604051809103902060030160009054906101000a900460ff166108d9576040517f08c379a00000000000000000000000000000000000000000000000000000000081526004016108d090610f50565b60405180910390fd5b6000826040516108e99190610e5e565b90815260200160405180910390206000018054610905906110da565b80601f0160208091040260200160405190810160405280929190818152602001828054610931906110da565b801561097e5780601f106109535761010080835404028352916020019161097e565b820191906000526020600020905b81548152906001019060200180831161096157829003601f168201915b50505050509050919050565b60405180608001604052806060815260200160608152602001606081526020016000151581525090565b8280546109c0906110da565b90600052602060002090601f0160209004810192826109e25760008555610a29565b82601f106109fb57805160ff1916838001178555610a29565b82800160010185558215610a29579182015b82811115610a28578251825591602001919060010190610a0d565b5b509050610a369190610a3a565b5090565b5b80821115610a53576000816000905550600101610a3b565b5090565b6000610a6a610a6584610fe1565b610fb0565b905082815260208101848484011115610a8257600080fd5b610a8d848285611098565b509392505050565b600082601f830112610aa657600080fd5b8135610ab6848260208601610a57565b91505092915050565b600060208284031215610ad157600080fd5b600082013567ffffffffffffffff811115610aeb57600080fd5b610af784828501610a95565b91505092915050565b600080600060608486031215610b1557600080fd5b600084013567ffffffffffffffff811115610b2f57600080fd5b610b3b86828701610a95565b935050602084013567ffffffffffffffff811115610b5857600080fd5b610b6486828701610a95565b925050604084013567ffffffffffffffff811115610b8157600080fd5b610b8d86828701610a95565b9150509250925092565b6000610ba38383610ded565b905092915050565b6000610bb682611021565b610bc08185611044565b935083602082028501610bd285611011565b8060005b85811015610c0e5784840389528151610bef8582610b97565b9450610bfa83611037565b925060208a01995050600181019050610bd6565b50829750879550505050505092915050565b610c2981611082565b82525050565b610c3881611082565b82525050565b6000610c498261102c565b610c538185611055565b9350610c638185602086016110a7565b610c6c816111e2565b840191505092915050565b6000610c828261102c565b610c8c8185611066565b9350610c9c8185602086016110a7565b610ca5816111e2565b840191505092915050565b6000610cbb8261102c565b610cc58185611077565b9350610cd58185602086016110a7565b80840191505092915050565b6000610cee601683611066565b91507f43657274696669636174206e6f6e2076616c6964652e000000000000000000006000830152602082019050919050565b6000610d2e602183611066565b91507f4c6520686163686167652064752066696368696572206573742072657175697360008301527f2e000000000000000000000000000000000000000000000000000000000000006020830152604082019050919050565b6000610d94602283611066565b91507f4c652063657274696669636174206573742064656a6120656e7265676973747260008301527f652e0000000000000000000000000000000000000000000000000000000000006020830152604082019050919050565b60006080830160008301518482036000860152610e0a8282610c3e565b91505060208301518482036020860152610e248282610c3e565b91505060408301518482036040860152610e3e8282610c3e565b9150506060830151610e536060860182610c20565b508091505092915050565b6000610e6a8284610cb0565b915081905092915050565b60006020820190508181036000830152610e8f8184610bab565b905092915050565b6000602082019050610eac6000830184610c2f565b92915050565b60006020820190508181036000830152610ecc8184610c77565b905092915050565b60006040820190508181036000830152610eee8185610c77565b9050610efd6020830184610c2f565b9392505050565b60006060820190508181036000830152610f1e8186610c77565b90508181036020830152610f328185610c77565b90508181036040830152610f468184610c77565b9050949350505050565b60006020820190508181036000830152610f6981610ce1565b9050919050565b60006020820190508181036000830152610f8981610d21565b9050919050565b60006020820190508181036000830152610fa981610d87565b9050919050565b6000604051905081810181811067ffffffffffffffff82111715610fd757610fd66111b3565b5b8060405250919050565b600067ffffffffffffffff821115610ffc57610ffb6111b3565b5b601f19601f8301169050602081019050919050565b6000819050602082019050919050565b600081519050919050565b600081519050919050565b6000602082019050919050565b600082825260208201905092915050565b600082825260208201905092915050565b600082825260208201905092915050565b600081905092915050565b60008115159050919050565b6000819050919050565b82818337600083830152505050565b60005b838110156110c55780820151818401526020810190506110aa565b838111156110d4576000848401525b50505050565b600060028204905060018216806110f257607f821691505b6020821081141561110657611105611184565b5b50919050565b60006111178261108e565b91507fffffffffffffffffffffffffffffffffffffffffffffffffffffffffffffffff82141561114a57611149611155565b5b600182019050919050565b7f4e487b7100000000000000000000000000000000000000000000000000000000600052601160045260246000fd5b7f4e487b7100000000000000000000000000000000000000000000000000000000600052602260045260246000fd5b7f4e487b7100000000000000000000000000000000000000000000000000000000600052604160045260246000fd5b6000601f19601f830116905091905056fea264697066735822122067e404f660c0e042e12db4e2bb5246e2a0aee705c5bffd494c0e26e690a9777764736f6c63430008000033",
  "immutableReferences": {},
  "source": "// SPDX-License-Identifier: MIT\r\npragma solidity ^0.8.0;\r\n\r\ncontract Certificate {\r\n    struct CertificateDetails {\r\n        string studentName;\r\n        string certificateTitle; // Nouveau champ pour le titre du certificat\r\n        string fileHash; // Hachage du fichier du certificat (SHA-256)\r\n        bool isValid;\r\n    }\r\n\r\n    // Mapping pour stocker les certificats par hachage de fichier\r\n    mapping(string => CertificateDetails) private certificates;\r\n\r\n    // Liste des hachages de fichiers pour itrer sur les certificats\r\n    string[] private certificateHashes;\r\n\r\n    // Adresse du propritaire du contrat (gnralement l'entit qui valide les certificats)\r\n    address private owner;\r\n\r\n    // vnements pour enregistrer et vrifier les certificats\r\n    event CertificateRegistered(string fileHash, string studentName, string certificateTitle);\r\n    event CertificateVerified(string fileHash, bool isOriginal);\r\n\r\n    // Constructeur pour dfinir le propritaire du contrat\r\n    constructor() {\r\n        owner = msg.sender;\r\n    }\r\n\r\n    // Fonction pour enregistrer un certificat avec son nom, titre et le hachage du fichier\r\n    function registerCertificate(\r\n        string memory studentName,\r\n        string memory certificateTitle,\r\n        string memory fileHash\r\n    ) public {\r\n        require(bytes(fileHash).length > 0, \"Le hachage du fichier est requis.\");\r\n        require(!certificates[fileHash].isValid, \"Le certificat est deja enregistre.\");\r\n\r\n        certificates[fileHash] = CertificateDetails(studentName, certificateTitle, fileHash, true);\r\n        certificateHashes.push(fileHash); // Ajouter le hachage du certificat  la liste\r\n\r\n        emit CertificateRegistered(fileHash, studentName, certificateTitle);\r\n    }\r\n\r\n    // Fonction pour vrifier si un certificat est valide\r\n    function verifyCertificate(string memory fileHash) public returns (bool) {\r\n        bool isValid = certificates[fileHash].isValid;\r\n\r\n        emit CertificateVerified(fileHash, isValid);\r\n        return isValid;\r\n    }\r\n\r\n    // Fonction pour rcuprer le nom de l'tudiant en fonction du hachage du certificat\r\n    function getStudentName(string memory fileHash) public view returns (string memory) {\r\n        require(certificates[fileHash].isValid, \"Certificat non valide.\");\r\n        return certificates[fileHash].studentName;\r\n    }\r\n\r\n    // Fonction pour rcuprer le titre du certificat en fonction du hachage\r\n    function getCertificateTitle(string memory fileHash) public view returns (string memory) {\r\n        require(certificates[fileHash].isValid, \"Certificat non valide.\");\r\n        return certificates[fileHash].certificateTitle;\r\n    }\r\n\r\n    // Fonction pour rcuprer tous les certificats enregistrs\r\n    function getAllCertificates() public view returns (CertificateDetails[] memory) {\r\n        uint256 count = certificateHashes.length;\r\n        CertificateDetails[] memory allCertificates = new CertificateDetails[](count);\r\n\r\n        for (uint256 i = 0; i < count; i++) {\r\n            string memory fileHash = certificateHashes[i];\r\n            allCertificates[i] = certificates[fileHash];\r\n        }\r\n\r\n        return allCertificates;\r\n    }\r\n}\r\n",
  "sourcePath": "C:\\Users\\khabb\\Bureau\\S5\\matiere au choix\\projet\\educhain\\contracts\\Certificate.sol",
  "compiler": {
    "name": "solc",
    "version": "0.8.0+commit.c7dfd78e.Emscripten.clang"
  },
  "schemaVersion": "3.4.16",
  "updatedAt": "2024-12-14T14:04:55.927Z",
  "networkType": "ethereum",
  "devdoc": {
    "kind": "dev",
    "methods": {},
    "version": 1
  },
  "userdoc": {
    "kind": "user",
    "methods": {},
    "version": 1
  }
}