{
  "contractName": "GradeVerification",
  "abi": [
    {
      "anonymous": false,
      "inputs": [
        {
          "indexed": false,
          "internalType": "address",
          "name": "student",
          "type": "address"
        },
        {
          "indexed": false,
          "internalType": "string",
          "name": "courseName",
          "type": "string"
        },
        {
          "indexed": false,
          "internalType": "uint8",
          "name": "grade",
          "type": "uint8"
        }
      ],
      "name": "GradeAdded",
      "type": "event"
    },
    {
      "inputs": [
        {
          "internalType": "address",
          "name": "",
          "type": "address"
        },
        {
          "internalType": "uint256",
          "name": "",
          "type": "uint256"
        }
      ],
      "name": "studentGrades",
      "outputs": [
        {
          "internalType": "string",
          "name": "courseName",
          "type": "string"
        },
        {
          "internalType": "uint8",
          "name": "grade",
          "type": "uint8"
        },
        {
          "internalType": "bool",
          "name": "isVerified",
          "type": "bool"
        }
      ],
      "stateMutability": "view",
      "type": "function",
      "constant": true
    },
    {
      "inputs": [
        {
          "internalType": "address",
          "name": "_student",
          "type": "address"
        },
        {
          "internalType": "string",
          "name": "_courseName",
          "type": "string"
        },
        {
          "internalType": "uint8",
          "name": "_grade",
          "type": "uint8"
        }
      ],
      "name": "addGrade",
      "outputs": [],
      "stateMutability": "nonpayable",
      "type": "function"
    },
    {
      "inputs": [
        {
          "internalType": "address",
          "name": "_student",
          "type": "address"
        },
        {
          "internalType": "uint256",
          "name": "_index",
          "type": "uint256"
        }
      ],
      "name": "verifyGrade",
      "outputs": [],
      "stateMutability": "nonpayable",
      "type": "function"
    },
    {
      "inputs": [
        {
          "internalType": "address",
          "name": "_student",
          "type": "address"
        }
      ],
      "name": "getGrades",
      "outputs": [
        {
          "components": [
            {
              "internalType": "string",
              "name": "courseName",
              "type": "string"
            },
            {
              "internalType": "uint8",
              "name": "grade",
              "type": "uint8"
            },
            {
              "internalType": "bool",
              "name": "isVerified",
              "type": "bool"
            }
          ],
          "internalType": "struct GradeVerification.Grade[]",
          "name": "",
          "type": "tuple[]"
        }
      ],
      "stateMutability": "view",
      "type": "function",
      "constant": true
    }
  ],
  "bytecode": "0x608060405234801561001057600080fd5b50610cae806100206000396000f3fe608060405234801561001057600080fd5b506004361061004c5760003560e01c8063739b2461146100515780638346137e14610083578063889ddd28146100b3578063a6401902146100cf575b600080fd5b61006b60048036038101906100669190610764565b6100eb565b60405161007a939291906109d6565b60405180910390f35b61009d600480360381019061009891906106d4565b6101d4565b6040516100aa91906109b4565b60405180910390f35b6100cd60048036038101906100c891906106fd565b61033b565b005b6100e960048036038101906100e49190610764565b610463565b005b6000602052816000526040600020818154811061010757600080fd5b90600052602060002090600202016000915091505080600001805461012b90610b92565b80601f016020809104026020016040519081016040528092919081815260200182805461015790610b92565b80156101a45780601f10610179576101008083540402835291602001916101a4565b820191906000526020600020905b81548152906001019060200180831161018757829003601f168201915b5050505050908060010160009054906101000a900460ff16908060010160019054906101000a900460ff16905083565b60606000808373ffffffffffffffffffffffffffffffffffffffff1673ffffffffffffffffffffffffffffffffffffffff168152602001908152602001600020805480602002602001604051908101604052809291908181526020016000905b82821015610330578382906000526020600020906002020160405180606001604052908160008201805461026790610b92565b80601f016020809104026020016040519081016040528092919081815260200182805461029390610b92565b80156102e05780601f106102b5576101008083540402835291602001916102e0565b820191906000526020600020905b8154815290600101906020018083116102c357829003601f168201915b505050505081526020016001820160009054906101000a900460ff1660ff1660ff1681526020016001820160019054906101000a900460ff16151515158152505081526020019060010190610234565b505050509050919050565b6000808473ffffffffffffffffffffffffffffffffffffffff1673ffffffffffffffffffffffffffffffffffffffff16815260200190815260200160002060405180606001604052808481526020018360ff16815260200160001515815250908060018154018082558091505060019003906000526020600020906002020160009091909190915060008201518160000190805190602001906103df92919061058a565b5060208201518160010160006101000a81548160ff021916908360ff16021790555060408201518160010160016101000a81548160ff02191690831515021790555050507ff93ce252ff7b6097c6aff07442edc7fe082f5b56d942c09d25311593c54f980d83838360405161045693929190610976565b60405180910390a1505050565b6000808373ffffffffffffffffffffffffffffffffffffffff1673ffffffffffffffffffffffffffffffffffffffff1681526020019081526020016000208054905081106104e6576040517f08c379a00000000000000000000000000000000000000000000000000000000081526004016104dd90610a14565b60405180910390fd5b60016000808473ffffffffffffffffffffffffffffffffffffffff1673ffffffffffffffffffffffffffffffffffffffff168152602001908152602001600020828154811061055e577f4e487b7100000000000000000000000000000000000000000000000000000000600052603260045260246000fd5b906000526020600020906002020160010160016101000a81548160ff0219169083151502179055505050565b82805461059690610b92565b90600052602060002090601f0160209004810192826105b857600085556105ff565b82601f106105d157805160ff19168380011785556105ff565b828001600101855582156105ff579182015b828111156105fe5782518255916020019190600101906105e3565b5b50905061060c9190610610565b5090565b5b80821115610629576000816000905550600101610611565b5090565b600061064061063b84610a65565b610a34565b90508281526020810184848401111561065857600080fd5b610663848285610b50565b509392505050565b60008135905061067a81610c33565b92915050565b600082601f83011261069157600080fd5b81356106a184826020860161062d565b91505092915050565b6000813590506106b981610c4a565b92915050565b6000813590506106ce81610c61565b92915050565b6000602082840312156106e657600080fd5b60006106f48482850161066b565b91505092915050565b60008060006060848603121561071257600080fd5b60006107208682870161066b565b935050602084013567ffffffffffffffff81111561073d57600080fd5b61074986828701610680565b925050604061075a868287016106bf565b9150509250925092565b6000806040838503121561077757600080fd5b60006107858582860161066b565b9250506020610796858286016106aa565b9150509250929050565b60006107ac8383610908565b905092915050565b6107bd81610afb565b82525050565b60006107ce82610aa5565b6107d88185610ac8565b9350836020820285016107ea85610a95565b8060005b85811015610826578484038952815161080785826107a0565b945061081283610abb565b925060208a019950506001810190506107ee565b50829750879550505050505092915050565b61084181610b0d565b82525050565b61085081610b0d565b82525050565b600061086182610ab0565b61086b8185610ad9565b935061087b818560208601610b5f565b61088481610c22565b840191505092915050565b600061089a82610ab0565b6108a48185610aea565b93506108b4818560208601610b5f565b6108bd81610c22565b840191505092915050565b60006108d5601383610aea565b91507f496e646578206f7574206f6620626f756e6473000000000000000000000000006000830152602082019050919050565b600060608301600083015184820360008601526109258282610856565b915050602083015161093a6020860182610958565b50604083015161094d6040860182610838565b508091505092915050565b61096181610b43565b82525050565b61097081610b43565b82525050565b600060608201905061098b60008301866107b4565b818103602083015261099d818561088f565b90506109ac6040830184610967565b949350505050565b600060208201905081810360008301526109ce81846107c3565b905092915050565b600060608201905081810360008301526109f0818661088f565b90506109ff6020830185610967565b610a0c6040830184610847565b949350505050565b60006020820190508181036000830152610a2d816108c8565b9050919050565b6000604051905081810181811067ffffffffffffffff82111715610a5b57610a5a610bf3565b5b8060405250919050565b600067ffffffffffffffff821115610a8057610a7f610bf3565b5b601f19601f8301169050602081019050919050565b6000819050602082019050919050565b600081519050919050565b600081519050919050565b6000602082019050919050565b600082825260208201905092915050565b600082825260208201905092915050565b600082825260208201905092915050565b6000610b0682610b19565b9050919050565b60008115159050919050565b600073ffffffffffffffffffffffffffffffffffffffff82169050919050565b6000819050919050565b600060ff82169050919050565b82818337600083830152505050565b60005b83811015610b7d578082015181840152602081019050610b62565b83811115610b8c576000848401525b50505050565b60006002820490506001821680610baa57607f821691505b60208210811415610bbe57610bbd610bc4565b5b50919050565b7f4e487b7100000000000000000000000000000000000000000000000000000000600052602260045260246000fd5b7f4e487b7100000000000000000000000000000000000000000000000000000000600052604160045260246000fd5b6000601f19601f8301169050919050565b610c3c81610afb565b8114610c4757600080fd5b50565b610c5381610b39565b8114610c5e57600080fd5b50565b610c6a81610b43565b8114610c7557600080fd5b5056fea2646970667358221220f3959a1120f3a16d8f34f9a89b194023e493360e453cceb7e9bdf01b4ced637764736f6c63430008000033",
  "immutableReferences": {},
  "source": "// SPDX-License-Identifier: MIT\r\npragma solidity ^0.8.0;\r\n\r\ncontract GradeVerification {\r\n    struct Grade {\r\n        string courseName;\r\n        uint8 grade;\r\n        bool isVerified;\r\n    }\r\n\r\n    mapping(address => Grade[]) public studentGrades;\r\n\r\n    // vnement pour l'ajout de note\r\n    event GradeAdded(address student, string courseName, uint8 grade);\r\n\r\n    // Fonction pour ajouter une note\r\n    function addGrade(address _student, string memory _courseName, uint8 _grade) public {\r\n        studentGrades[_student].push(Grade(_courseName, _grade, false));\r\n        emit GradeAdded(_student, _courseName, _grade);\r\n    }\r\n\r\n    // Fonction pour vrifier une note\r\n    function verifyGrade(address _student, uint256 _index) public {\r\n        require(_index < studentGrades[_student].length, \"Index out of bounds\");\r\n        studentGrades[_student][_index].isVerified = true;\r\n    }\r\n\r\n    // Fonction pour rcuprer les notes d'un tudiant\r\n    function getGrades(address _student) public view returns (Grade[] memory) {\r\n        return studentGrades[_student];\r\n    }\r\n}\r\n",
  "sourcePath": "C:\\Users\\hp\\OneDrive\\Desktop\\Matiere au choix\\educhain\\contracts\\GradeVerification.sol",
  "compiler": {
    "name": "solc",
    "version": "0.8.0+commit.c7dfd78e.Emscripten.clang"
  },
  "schemaVersion": "3.4.16",
  "updatedAt": "2024-11-09T13:19:56.121Z",
  "networkType": "ethereum",
  "devdoc": {
    "kind": "dev",
    "methods": {},
    "version": 1
  },
  "userdoc": {
    "kind": "user",
    "methods": {},
    "version": 1
  }
}