{
  "contractName": "Professor",
  "abi": [
    {
      "anonymous": false,
      "inputs": [
        {
          "indexed": true,
          "internalType": "string",
          "name": "cin",
          "type": "string"
        },
        {
          "indexed": false,
          "internalType": "string",
          "name": "firstName",
          "type": "string"
        },
        {
          "indexed": false,
          "internalType": "string",
          "name": "lastName",
          "type": "string"
        },
        {
          "indexed": false,
          "internalType": "string",
          "name": "dateOfBirth",
          "type": "string"
        },
        {
          "indexed": false,
          "internalType": "string",
          "name": "email",
          "type": "string"
        },
        {
          "indexed": false,
          "internalType": "string",
          "name": "filiere",
          "type": "string"
        }
      ],
      "name": "ProfessorAdded",
      "type": "event"
    },
    {
      "inputs": [
        {
          "internalType": "uint256",
          "name": "",
          "type": "uint256"
        }
      ],
      "name": "professorCINs",
      "outputs": [
        {
          "internalType": "string",
          "name": "",
          "type": "string"
        }
      ],
      "stateMutability": "view",
      "type": "function"
    },
    {
      "inputs": [
        {
          "internalType": "string",
          "name": "",
          "type": "string"
        }
      ],
      "name": "professors",
      "outputs": [
        {
          "internalType": "string",
          "name": "firstName",
          "type": "string"
        },
        {
          "internalType": "string",
          "name": "lastName",
          "type": "string"
        },
        {
          "internalType": "string",
          "name": "dateOfBirth",
          "type": "string"
        },
        {
          "internalType": "string",
          "name": "email",
          "type": "string"
        },
        {
          "internalType": "string",
          "name": "cin",
          "type": "string"
        },
        {
          "internalType": "string",
          "name": "filiere",
          "type": "string"
        }
      ],
      "stateMutability": "view",
      "type": "function"
    },
    {
      "inputs": [
        {
          "internalType": "string",
          "name": "_cin",
          "type": "string"
        },
        {
          "internalType": "string",
          "name": "_firstName",
          "type": "string"
        },
        {
          "internalType": "string",
          "name": "_lastName",
          "type": "string"
        },
        {
          "internalType": "string",
          "name": "_dateOfBirth",
          "type": "string"
        },
        {
          "internalType": "string",
          "name": "_email",
          "type": "string"
        },
        {
          "internalType": "string",
          "name": "_filiere",
          "type": "string"
        }
      ],
      "name": "addProfessor",
      "outputs": [],
      "stateMutability": "nonpayable",
      "type": "function"
    },
    {
      "inputs": [
        {
          "internalType": "string",
          "name": "_cin",
          "type": "string"
        }
      ],
      "name": "getProfessorInfo",
      "outputs": [
        {
          "internalType": "string",
          "name": "firstName",
          "type": "string"
        },
        {
          "internalType": "string",
          "name": "lastName",
          "type": "string"
        },
        {
          "internalType": "string",
          "name": "dateOfBirth",
          "type": "string"
        },
        {
          "internalType": "string",
          "name": "email",
          "type": "string"
        },
        {
          "internalType": "string",
          "name": "filiere",
          "type": "string"
        }
      ],
      "stateMutability": "view",
      "type": "function"
    },
    {
      "inputs": [],
      "name": "getAllProfessors",
      "outputs": [
        {
          "components": [
            {
              "internalType": "string",
              "name": "firstName",
              "type": "string"
            },
            {
              "internalType": "string",
              "name": "lastName",
              "type": "string"
            },
            {
              "internalType": "string",
              "name": "dateOfBirth",
              "type": "string"
            },
            {
              "internalType": "string",
              "name": "email",
              "type": "string"
            },
            {
              "internalType": "string",
              "name": "cin",
              "type": "string"
            },
            {
              "internalType": "string",
              "name": "filiere",
              "type": "string"
            }
          ],
          "internalType": "struct Professor.ProfessorData[]",
          "name": "",
          "type": "tuple[]"
        }
      ],
      "stateMutability": "view",
      "type": "function"
    },
    {
      "inputs": [
        {
          "internalType": "string",
          "name": "email",
          "type": "string"
        }
      ],
      "name": "getProfessorByEmail",
      "outputs": [
        {
          "internalType": "string",
          "name": "firstName",
          "type": "string"
        },
        {
          "internalType": "string",
          "name": "lastName",
          "type": "string"
        },
        {
          "internalType": "string",
          "name": "dateOfBirth",
          "type": "string"
        },
        {
          "internalType": "string",
          "name": "emailAddress",
          "type": "string"
        },
        {
          "internalType": "string",
          "name": "cin",
          "type": "string"
        },
        {
          "internalType": "string",
          "name": "filiere",
          "type": "string"
        }
      ],
      "stateMutability": "view",
      "type": "function"
    }
  ],
  "bytecode": "0x608060405234801561001057600080fd5b50611e4c806100206000396000f3fe608060405234801561001057600080fd5b50600436106100625760003560e01c806316211fd21461006757806342b2d1be14610097578063483ef881146100b557806359bcbe9a146100e957806363a0dd5a1461011e578063c27818ed1461013a575b600080fd5b610081600480360381019061007c91906116da565b61016f565b60405161008e9190611a50565b60405180910390f35b61009f61021b565b6040516100ac9190611a2e565b60405180910390f35b6100cf60048036038101906100ca9190611580565b6106e8565b6040516100e0959493929190611a72565b60405180910390f35b61010360048036038101906100fe9190611580565b610a48565b60405161011596959493929190611ae8565b60405180910390f35b610138600480360381019061013391906115c1565b610ee8565b005b610154600480360381019061014f9190611580565b6110a8565b60405161016696959493929190611ae8565b60405180910390f35b6001818154811061017f57600080fd5b90600052602060002001600091509050805461019a90611ce6565b80601f01602080910402602001604051908101604052809291908181526020018280546101c690611ce6565b80156102135780601f106101e857610100808354040283529160200191610213565b820191906000526020600020905b8154815290600101906020018083116101f657829003601f168201915b505050505081565b60606000600180549050905060008167ffffffffffffffff811115610269577f4e487b7100000000000000000000000000000000000000000000000000000000600052604160045260246000fd5b6040519080825280602002602001820160405280156102a257816020015b61028f61142a565b8152602001906001900390816102875790505b50905060005b828110156106df576000600182815481106102ec577f4e487b7100000000000000000000000000000000000000000000000000000000600052603260045260246000fd5b906000526020600020016040516103039190611a17565b90815260200160405180910390206040518060c001604052908160008201805461032c90611ce6565b80601f016020809104026020016040519081016040528092919081815260200182805461035890611ce6565b80156103a55780601f1061037a576101008083540402835291602001916103a5565b820191906000526020600020905b81548152906001019060200180831161038857829003601f168201915b505050505081526020016001820180546103be90611ce6565b80601f01602080910402602001604051908101604052809291908181526020018280546103ea90611ce6565b80156104375780601f1061040c57610100808354040283529160200191610437565b820191906000526020600020905b81548152906001019060200180831161041a57829003601f168201915b5050505050815260200160028201805461045090611ce6565b80601f016020809104026020016040519081016040528092919081815260200182805461047c90611ce6565b80156104c95780601f1061049e576101008083540402835291602001916104c9565b820191906000526020600020905b8154815290600101906020018083116104ac57829003601f168201915b505050505081526020016003820180546104e290611ce6565b80601f016020809104026020016040519081016040528092919081815260200182805461050e90611ce6565b801561055b5780601f106105305761010080835404028352916020019161055b565b820191906000526020600020905b81548152906001019060200180831161053e57829003601f168201915b5050505050815260200160048201805461057490611ce6565b80601f01602080910402602001604051908101604052809291908181526020018280546105a090611ce6565b80156105ed5780601f106105c2576101008083540402835291602001916105ed565b820191906000526020600020905b8154815290600101906020018083116105d057829003601f168201915b5050505050815260200160058201805461060690611ce6565b80601f016020809104026020016040519081016040528092919081815260200182805461063290611ce6565b801561067f5780601f106106545761010080835404028352916020019161067f565b820191906000526020600020905b81548152906001019060200180831161066257829003601f168201915b5050505050815250508282815181106106c1577f4e487b7100000000000000000000000000000000000000000000000000000000600052603260045260246000fd5b602002602001018190525080806106d790611d18565b9150506102a8565b50809250505090565b6060806060806060600080876040516107019190611a00565b90815260200160405180910390209050600081600401805461072290611ce6565b905011610764576040517f08c379a000000000000000000000000000000000000000000000000000000000815260040161075b90611b93565b60405180910390fd5b806000018160010182600201836003018460050184805461078490611ce6565b80601f01602080910402602001604051908101604052809291908181526020018280546107b090611ce6565b80156107fd5780601f106107d2576101008083540402835291602001916107fd565b820191906000526020600020905b8154815290600101906020018083116107e057829003601f168201915b5050505050945083805461081090611ce6565b80601f016020809104026020016040519081016040528092919081815260200182805461083c90611ce6565b80156108895780601f1061085e57610100808354040283529160200191610889565b820191906000526020600020905b81548152906001019060200180831161086c57829003601f168201915b5050505050935082805461089c90611ce6565b80601f01602080910402602001604051908101604052809291908181526020018280546108c890611ce6565b80156109155780601f106108ea57610100808354040283529160200191610915565b820191906000526020600020905b8154815290600101906020018083116108f857829003601f168201915b5050505050925081805461092890611ce6565b80601f016020809104026020016040519081016040528092919081815260200182805461095490611ce6565b80156109a15780601f10610976576101008083540402835291602001916109a1565b820191906000526020600020905b81548152906001019060200180831161098457829003601f168201915b505050505091508080546109b490611ce6565b80601f01602080910402602001604051908101604052809291908181526020018280546109e090611ce6565b8015610a2d5780601f10610a0257610100808354040283529160200191610a2d565b820191906000526020600020905b815481529060010190602001808311610a1057829003601f168201915b50505050509050955095509550955095505091939590929450565b60608060608060608060005b600180549050811015610ea35760008060018381548110610a9e577f4e487b7100000000000000000000000000000000000000000000000000000000600052603260045260246000fd5b90600052602060002001604051610ab59190611a17565b9081526020016040518091039020905088604051602001610ad69190611a00565b6040516020818303038152906040528051906020012081600301604051602001610b009190611a17565b604051602081830303815290604052805190602001201415610e8f57806000018160010182600201836003018460040185600501858054610b4090611ce6565b80601f0160208091040260200160405190810160405280929190818152602001828054610b6c90611ce6565b8015610bb95780601f10610b8e57610100808354040283529160200191610bb9565b820191906000526020600020905b815481529060010190602001808311610b9c57829003601f168201915b50505050509550848054610bcc90611ce6565b80601f0160208091040260200160405190810160405280929190818152602001828054610bf890611ce6565b8015610c455780601f10610c1a57610100808354040283529160200191610c45565b820191906000526020600020905b815481529060010190602001808311610c2857829003601f168201915b50505050509450838054610c5890611ce6565b80601f0160208091040260200160405190810160405280929190818152602001828054610c8490611ce6565b8015610cd15780601f10610ca657610100808354040283529160200191610cd1565b820191906000526020600020905b815481529060010190602001808311610cb457829003601f168201915b50505050509350828054610ce490611ce6565b80601f0160208091040260200160405190810160405280929190818152602001828054610d1090611ce6565b8015610d5d5780601f10610d3257610100808354040283529160200191610d5d565b820191906000526020600020905b815481529060010190602001808311610d4057829003601f168201915b50505050509250818054610d7090611ce6565b80601f0160208091040260200160405190810160405280929190818152602001828054610d9c90611ce6565b8015610de95780601f10610dbe57610100808354040283529160200191610de9565b820191906000526020600020905b815481529060010190602001808311610dcc57829003601f168201915b50505050509150808054610dfc90611ce6565b80601f0160208091040260200160405190810160405280929190818152602001828054610e2890611ce6565b8015610e755780601f10610e4a57610100808354040283529160200191610e75565b820191906000526020600020905b815481529060010190602001808311610e5857829003601f168201915b505050505090509750975097509750975097505050610edf565b508080610e9b90611d18565b915050610a54565b506040517f08c379a0000000000000000000000000000000000000000000000000000000008152600401610ed690611b93565b60405180910390fd5b91939550919395565b60008087604051610ef99190611a00565b90815260200160405180910390206004018054610f1590611ce6565b905014610f57576040517f08c379a0000000000000000000000000000000000000000000000000000000008152600401610f4e90611b73565b60405180910390fd5b600186908060018154018082558091505060019003906000526020600020016000909190919091509080519060200190610f92929190611460565b5060008087604051610fa49190611a00565b9081526020016040518091039020905085816000019080519060200190610fcc929190611460565b5084816001019080519060200190610fe5929190611460565b5083816002019080519060200190610ffe929190611460565b5082816003019080519060200190611017929190611460565b5086816004019080519060200190611030929190611460565b5081816005019080519060200190611049929190611460565b50866040516110589190611a00565b60405180910390207f2d38e93882c2271a5d40d4d8f0dd24b33312f963de0616765e6e4f8e1ec2681d8787878787604051611097959493929190611a72565b60405180910390a250505050505050565b6000818051602081018201805184825260208301602085012081835280955050505050506000915090508060000180546110e190611ce6565b80601f016020809104026020016040519081016040528092919081815260200182805461110d90611ce6565b801561115a5780601f1061112f5761010080835404028352916020019161115a565b820191906000526020600020905b81548152906001019060200180831161113d57829003601f168201915b50505050509080600101805461116f90611ce6565b80601f016020809104026020016040519081016040528092919081815260200182805461119b90611ce6565b80156111e85780601f106111bd576101008083540402835291602001916111e8565b820191906000526020600020905b8154815290600101906020018083116111cb57829003601f168201915b5050505050908060020180546111fd90611ce6565b80601f016020809104026020016040519081016040528092919081815260200182805461122990611ce6565b80156112765780601f1061124b57610100808354040283529160200191611276565b820191906000526020600020905b81548152906001019060200180831161125957829003601f168201915b50505050509080600301805461128b90611ce6565b80601f01602080910402602001604051908101604052809291908181526020018280546112b790611ce6565b80156113045780601f106112d957610100808354040283529160200191611304565b820191906000526020600020905b8154815290600101906020018083116112e757829003601f168201915b50505050509080600401805461131990611ce6565b80601f016020809104026020016040519081016040528092919081815260200182805461134590611ce6565b80156113925780601f1061136757610100808354040283529160200191611392565b820191906000526020600020905b81548152906001019060200180831161137557829003601f168201915b5050505050908060050180546113a790611ce6565b80601f01602080910402602001604051908101604052809291908181526020018280546113d390611ce6565b80156114205780601f106113f557610100808354040283529160200191611420565b820191906000526020600020905b81548152906001019060200180831161140357829003601f168201915b5050505050905086565b6040518060c001604052806060815260200160608152602001606081526020016060815260200160608152602001606081525090565b82805461146c90611ce6565b90600052602060002090601f01602090048101928261148e57600085556114d5565b82601f106114a757805160ff19168380011785556114d5565b828001600101855582156114d5579182015b828111156114d45782518255916020019190600101906114b9565b5b5090506114e291906114e6565b5090565b5b808211156114ff5760008160009055506001016114e7565b5090565b600061151661151184611be4565b611bb3565b90508281526020810184848401111561152e57600080fd5b611539848285611ca4565b509392505050565b600082601f83011261155257600080fd5b8135611562848260208601611503565b91505092915050565b60008135905061157a81611dff565b92915050565b60006020828403121561159257600080fd5b600082013567ffffffffffffffff8111156115ac57600080fd5b6115b884828501611541565b91505092915050565b60008060008060008060c087890312156115da57600080fd5b600087013567ffffffffffffffff8111156115f457600080fd5b61160089828a01611541565b965050602087013567ffffffffffffffff81111561161d57600080fd5b61162989828a01611541565b955050604087013567ffffffffffffffff81111561164657600080fd5b61165289828a01611541565b945050606087013567ffffffffffffffff81111561166f57600080fd5b61167b89828a01611541565b935050608087013567ffffffffffffffff81111561169857600080fd5b6116a489828a01611541565b92505060a087013567ffffffffffffffff8111156116c157600080fd5b6116cd89828a01611541565b9150509295509295509295565b6000602082840312156116ec57600080fd5b60006116fa8482850161156b565b91505092915050565b600061170f8383611954565b905092915050565b600061172282611c39565b61172c8185611c5c565b93508360208202850161173e85611c14565b8060005b8581101561177a578484038952815161175b8582611703565b945061176683611c4f565b925060208a01995050600181019050611742565b50829750879550505050505092915050565b600061179782611c44565b6117a18185611c6d565b93506117b1818560208601611cb3565b6117ba81611dee565b840191505092915050565b60006117d082611c44565b6117da8185611c7e565b93506117ea818560208601611cb3565b6117f381611dee565b840191505092915050565b600061180982611c44565b6118138185611c8f565b9350611823818560208601611cb3565b80840191505092915050565b6000815461183c81611ce6565b6118468186611c8f565b945060018216600081146118615760018114611872576118a5565b60ff198316865281860193506118a5565b61187b85611c24565b60005b8381101561189d5781548189015260018201915060208101905061187e565b838801955050505b50505092915050565b60006118bb602683611c7e565b91507f50726f666573736f72207769746820746869732043494e20616c72656164792060008301527f65786973747300000000000000000000000000000000000000000000000000006020830152604082019050919050565b6000611921601383611c7e565b91507f50726f666573736f72206e6f7420666f756e64000000000000000000000000006000830152602082019050919050565b600060c0830160008301518482036000860152611971828261178c565b9150506020830151848203602086015261198b828261178c565b915050604083015184820360408601526119a5828261178c565b915050606083015184820360608601526119bf828261178c565b915050608083015184820360808601526119d9828261178c565b91505060a083015184820360a08601526119f3828261178c565b9150508091505092915050565b6000611a0c82846117fe565b915081905092915050565b6000611a23828461182f565b915081905092915050565b60006020820190508181036000830152611a488184611717565b905092915050565b60006020820190508181036000830152611a6a81846117c5565b905092915050565b600060a0820190508181036000830152611a8c81886117c5565b90508181036020830152611aa081876117c5565b90508181036040830152611ab481866117c5565b90508181036060830152611ac881856117c5565b90508181036080830152611adc81846117c5565b90509695505050505050565b600060c0820190508181036000830152611b0281896117c5565b90508181036020830152611b1681886117c5565b90508181036040830152611b2a81876117c5565b90508181036060830152611b3e81866117c5565b90508181036080830152611b5281856117c5565b905081810360a0830152611b6681846117c5565b9050979650505050505050565b60006020820190508181036000830152611b8c816118ae565b9050919050565b60006020820190508181036000830152611bac81611914565b9050919050565b6000604051905081810181811067ffffffffffffffff82111715611bda57611bd9611dbf565b5b8060405250919050565b600067ffffffffffffffff821115611bff57611bfe611dbf565b5b601f19601f8301169050602081019050919050565b6000819050602082019050919050565b60008190508160005260206000209050919050565b600081519050919050565b600081519050919050565b6000602082019050919050565b600082825260208201905092915050565b600082825260208201905092915050565b600082825260208201905092915050565b600081905092915050565b6000819050919050565b82818337600083830152505050565b60005b83811015611cd1578082015181840152602081019050611cb6565b83811115611ce0576000848401525b50505050565b60006002820490506001821680611cfe57607f821691505b60208210811415611d1257611d11611d90565b5b50919050565b6000611d2382611c9a565b91507fffffffffffffffffffffffffffffffffffffffffffffffffffffffffffffffff821415611d5657611d55611d61565b5b600182019050919050565b7f4e487b7100000000000000000000000000000000000000000000000000000000600052601160045260246000fd5b7f4e487b7100000000000000000000000000000000000000000000000000000000600052602260045260246000fd5b7f4e487b7100000000000000000000000000000000000000000000000000000000600052604160045260246000fd5b6000601f19601f8301169050919050565b611e0881611c9a565b8114611e1357600080fd5b5056fea264697066735822122057fc2ccb564cbf0248b9bcc5cee24e75d7210ab1742b661c8a98761442deb49964736f6c63430008000033",
  "immutableReferences": {},
  "source": "// SPDX-License-Identifier: MIT \r\npragma solidity ^0.8.0;\r\n\r\ncontract Professor {\r\n    struct ProfessorData {\r\n        string firstName;\r\n        string lastName;\r\n        string dateOfBirth;\r\n        string email;\r\n        string cin; // Utilis comme identifiant unique\r\n        string filiere; // Remis le champ 'filiere'\r\n    }\r\n\r\n    // Mapping bas sur le CIN\r\n    mapping(string => ProfessorData) public professors;\r\n    string[] public professorCINs; // Liste de tous les CINs pour itration\r\n\r\n    event ProfessorAdded(\r\n        string indexed cin,\r\n        string firstName,\r\n        string lastName,\r\n        string dateOfBirth,\r\n        string email,\r\n        string filiere // Utilisation du champ 'filiere'\r\n    );\r\n\r\n    // Ajouter un professeur\r\n    function addProfessor(\r\n        string memory _cin,\r\n        string memory _firstName,\r\n        string memory _lastName,\r\n        string memory _dateOfBirth,\r\n        string memory _email,\r\n        string memory _filiere // Utilisation du champ 'filiere'\r\n    ) public {\r\n        // Vrifier si le professeur existe dj\r\n        require(bytes(professors[_cin].cin).length == 0, \"Professor with this CIN already exists\");\r\n\r\n        professorCINs.push(_cin);\r\n\r\n        ProfessorData storage newProfessor = professors[_cin];\r\n        newProfessor.firstName = _firstName;\r\n        newProfessor.lastName = _lastName;\r\n        newProfessor.dateOfBirth = _dateOfBirth;\r\n        newProfessor.email = _email;\r\n        newProfessor.cin = _cin;\r\n        newProfessor.filiere = _filiere; // Assignation du filire\r\n\r\n        emit ProfessorAdded(_cin, _firstName, _lastName, _dateOfBirth, _email, _filiere);\r\n    }\r\n\r\n    // Rcuprer les informations d'un professeur par CIN\r\n    function getProfessorInfo(string memory _cin) public view returns (\r\n        string memory firstName,\r\n        string memory lastName,\r\n        string memory dateOfBirth,\r\n        string memory email,\r\n        string memory filiere // Utilisation du champ 'filiere'\r\n    ) {\r\n        ProfessorData storage professor = professors[_cin];\r\n        require(bytes(professor.cin).length > 0, \"Professor not found\");\r\n\r\n        return (\r\n            professor.firstName,\r\n            professor.lastName,\r\n            professor.dateOfBirth,\r\n            professor.email,\r\n            professor.filiere // Utilisation du champ 'filiere'\r\n        );\r\n    }\r\n\r\n    // Rcuprer la liste de tous les professeurs\r\n    function getAllProfessors() public view returns (ProfessorData[] memory) {\r\n        uint professorCount = professorCINs.length;\r\n        ProfessorData[] memory allProfessors = new ProfessorData[](professorCount);\r\n\r\n        for (uint i = 0; i < professorCount; i++) {\r\n            allProfessors[i] = professors[professorCINs[i]];\r\n        }\r\n\r\n        return allProfessors;\r\n    }\r\n\r\n    // Rcuprer les informations d'un professeur par email\r\n    function getProfessorByEmail(string memory email) public view returns (\r\n        string memory firstName,\r\n        string memory lastName,\r\n        string memory dateOfBirth,\r\n        string memory emailAddress,\r\n        string memory cin,\r\n        string memory filiere // Utilisation du champ 'filiere'\r\n    ) {\r\n        for (uint i = 0; i < professorCINs.length; i++) {\r\n            ProfessorData storage professor = professors[professorCINs[i]];\r\n            if (keccak256(abi.encodePacked(professor.email)) == keccak256(abi.encodePacked(email))) {\r\n                return (\r\n                    professor.firstName,\r\n                    professor.lastName,\r\n                    professor.dateOfBirth,\r\n                    professor.email,\r\n                    professor.cin,\r\n                    professor.filiere // Utilisation du champ 'filiere'\r\n                );\r\n            }\r\n        }\r\n        revert(\"Professor not found\");\r\n    }\r\n}\r\n",
  "sourcePath": "C:\\Users\\nadah\\Desktop\\projet\\educhain\\contracts\\Professor.sol",
  "compiler": {
    "name": "solc",
    "version": "0.8.0+commit.c7dfd78e.Emscripten.clang"
  },
  "schemaVersion": "3.4.16",
  "updatedAt": "2024-11-24T00:17:12.168Z",
  "devdoc": {
    "kind": "dev",
    "methods": {},
    "version": 1
  },
  "userdoc": {
    "kind": "user",
    "methods": {},
    "version": 1
  }
}