{
  "contractName": "Student",
  "abi": [
    {
      "anonymous": false,
      "inputs": [
        {
          "indexed": true,
          "internalType": "string",
          "name": "cne",
          "type": "string"
        },
        {
          "indexed": false,
          "internalType": "string",
          "name": "firstName",
          "type": "string"
        },
        {
          "indexed": false,
          "internalType": "string",
          "name": "lastName",
          "type": "string"
        },
        {
          "indexed": false,
          "internalType": "string",
          "name": "dateOfBirth",
          "type": "string"
        },
        {
          "indexed": false,
          "internalType": "string",
          "name": "email",
          "type": "string"
        },
        {
          "indexed": false,
          "internalType": "string",
          "name": "filiere",
          "type": "string"
        },
        {
          "indexed": false,
          "internalType": "string",
          "name": "anneeUniv",
          "type": "string"
        },
        {
          "indexed": false,
          "internalType": "string",
          "name": "transcript",
          "type": "string"
        }
      ],
      "name": "StudentAdded",
      "type": "event"
    },
    {
      "inputs": [
        {
          "internalType": "uint256",
          "name": "",
          "type": "uint256"
        }
      ],
      "name": "studentCNEs",
      "outputs": [
        {
          "internalType": "string",
          "name": "",
          "type": "string"
        }
      ],
      "stateMutability": "view",
      "type": "function"
    },
    {
      "inputs": [
        {
          "internalType": "string",
          "name": "",
          "type": "string"
        },
        {
          "internalType": "uint256",
          "name": "",
          "type": "uint256"
        }
      ],
      "name": "studentRecords",
      "outputs": [
        {
          "internalType": "string",
          "name": "firstName",
          "type": "string"
        },
        {
          "internalType": "string",
          "name": "lastName",
          "type": "string"
        },
        {
          "internalType": "string",
          "name": "dateOfBirth",
          "type": "string"
        },
        {
          "internalType": "string",
          "name": "email",
          "type": "string"
        },
        {
          "internalType": "string",
          "name": "cne",
          "type": "string"
        },
        {
          "internalType": "string",
          "name": "filiere",
          "type": "string"
        },
        {
          "internalType": "string",
          "name": "anneeUniv",
          "type": "string"
        },
        {
          "internalType": "string",
          "name": "transcript",
          "type": "string"
        }
      ],
      "stateMutability": "view",
      "type": "function"
    },
    {
      "inputs": [
        {
          "internalType": "string",
          "name": "_cne",
          "type": "string"
        },
        {
          "internalType": "string",
          "name": "_firstName",
          "type": "string"
        },
        {
          "internalType": "string",
          "name": "_lastName",
          "type": "string"
        },
        {
          "internalType": "string",
          "name": "_dateOfBirth",
          "type": "string"
        },
        {
          "internalType": "string",
          "name": "_email",
          "type": "string"
        },
        {
          "internalType": "string",
          "name": "_filiere",
          "type": "string"
        },
        {
          "internalType": "string",
          "name": "_anneeUniv",
          "type": "string"
        },
        {
          "internalType": "string",
          "name": "_transcript",
          "type": "string"
        }
      ],
      "name": "addStudent",
      "outputs": [],
      "stateMutability": "nonpayable",
      "type": "function"
    },
    {
      "inputs": [
        {
          "internalType": "string",
          "name": "_cne",
          "type": "string"
        }
      ],
      "name": "getStudentRecords",
      "outputs": [
        {
          "components": [
            {
              "internalType": "string",
              "name": "firstName",
              "type": "string"
            },
            {
              "internalType": "string",
              "name": "lastName",
              "type": "string"
            },
            {
              "internalType": "string",
              "name": "dateOfBirth",
              "type": "string"
            },
            {
              "internalType": "string",
              "name": "email",
              "type": "string"
            },
            {
              "internalType": "string",
              "name": "cne",
              "type": "string"
            },
            {
              "internalType": "string",
              "name": "filiere",
              "type": "string"
            },
            {
              "internalType": "string",
              "name": "anneeUniv",
              "type": "string"
            },
            {
              "internalType": "string",
              "name": "transcript",
              "type": "string"
            }
          ],
          "internalType": "struct Student.StudentData[]",
          "name": "",
          "type": "tuple[]"
        }
      ],
      "stateMutability": "view",
      "type": "function"
    },
    {
      "inputs": [],
      "name": "getAllStudents",
      "outputs": [
        {
          "components": [
            {
              "internalType": "string",
              "name": "firstName",
              "type": "string"
            },
            {
              "internalType": "string",
              "name": "lastName",
              "type": "string"
            },
            {
              "internalType": "string",
              "name": "dateOfBirth",
              "type": "string"
            },
            {
              "internalType": "string",
              "name": "email",
              "type": "string"
            },
            {
              "internalType": "string",
              "name": "cne",
              "type": "string"
            },
            {
              "internalType": "string",
              "name": "filiere",
              "type": "string"
            },
            {
              "internalType": "string",
              "name": "anneeUniv",
              "type": "string"
            },
            {
              "internalType": "string",
              "name": "transcript",
              "type": "string"
            }
          ],
          "internalType": "struct Student.StudentData[]",
          "name": "",
          "type": "tuple[]"
        }
      ],
      "stateMutability": "view",
      "type": "function"
    }
  ],
  "bytecode": "0x608060405234801561001057600080fd5b5061221d806100206000396000f3fe608060405234801561001057600080fd5b50600436106100575760003560e01c80632d175a181461005c57806357bcc11d1461008c578063b6cc9713146100c3578063e9e30927146100df578063fa1b3372146100fd575b600080fd5b61007660048036038101906100719190611824565b61012d565b6040516100839190611d74565b60405180910390f35b6100a660048036038101906100a191906119d7565b61063b565b6040516100ba989796959493929190611e58565b60405180910390f35b6100dd60048036038101906100d89190611865565b610af6565b005b6100e7610d76565b6040516100f49190611d74565b60405180910390f35b61011760048036038101906101129190611a2b565b611478565b6040516101249190611d96565b60405180910390f35b606060008260405161013f9190611d46565b9081526020016040518091039020805480602002602001604051908101604052809291908181526020016000905b828210156106305783829060005260206000209060080201604051806101000160405290816000820180546101a1906120b7565b80601f01602080910402602001604051908101604052809291908181526020018280546101cd906120b7565b801561021a5780601f106101ef5761010080835404028352916020019161021a565b820191906000526020600020905b8154815290600101906020018083116101fd57829003601f168201915b50505050508152602001600182018054610233906120b7565b80601f016020809104026020016040519081016040528092919081815260200182805461025f906120b7565b80156102ac5780601f10610281576101008083540402835291602001916102ac565b820191906000526020600020905b81548152906001019060200180831161028f57829003601f168201915b505050505081526020016002820180546102c5906120b7565b80601f01602080910402602001604051908101604052809291908181526020018280546102f1906120b7565b801561033e5780601f106103135761010080835404028352916020019161033e565b820191906000526020600020905b81548152906001019060200180831161032157829003601f168201915b50505050508152602001600382018054610357906120b7565b80601f0160208091040260200160405190810160405280929190818152602001828054610383906120b7565b80156103d05780601f106103a5576101008083540402835291602001916103d0565b820191906000526020600020905b8154815290600101906020018083116103b357829003601f168201915b505050505081526020016004820180546103e9906120b7565b80601f0160208091040260200160405190810160405280929190818152602001828054610415906120b7565b80156104625780601f1061043757610100808354040283529160200191610462565b820191906000526020600020905b81548152906001019060200180831161044557829003601f168201915b5050505050815260200160058201805461047b906120b7565b80601f01602080910402602001604051908101604052809291908181526020018280546104a7906120b7565b80156104f45780601f106104c9576101008083540402835291602001916104f4565b820191906000526020600020905b8154815290600101906020018083116104d757829003601f168201915b5050505050815260200160068201805461050d906120b7565b80601f0160208091040260200160405190810160405280929190818152602001828054610539906120b7565b80156105865780601f1061055b57610100808354040283529160200191610586565b820191906000526020600020905b81548152906001019060200180831161056957829003601f168201915b5050505050815260200160078201805461059f906120b7565b80601f01602080910402602001604051908101604052809291908181526020018280546105cb906120b7565b80156106185780601f106105ed57610100808354040283529160200191610618565b820191906000526020600020905b8154815290600101906020018083116105fb57829003601f168201915b5050505050815250508152602001906001019061016d565b505050509050919050565b600082805160208101820180518482526020830160208501208183528095505050505050818154811061066d57600080fd5b906000526020600020906008020160009150915050806000018054610691906120b7565b80601f01602080910402602001604051908101604052809291908181526020018280546106bd906120b7565b801561070a5780601f106106df5761010080835404028352916020019161070a565b820191906000526020600020905b8154815290600101906020018083116106ed57829003601f168201915b50505050509080600101805461071f906120b7565b80601f016020809104026020016040519081016040528092919081815260200182805461074b906120b7565b80156107985780601f1061076d57610100808354040283529160200191610798565b820191906000526020600020905b81548152906001019060200180831161077b57829003601f168201915b5050505050908060020180546107ad906120b7565b80601f01602080910402602001604051908101604052809291908181526020018280546107d9906120b7565b80156108265780601f106107fb57610100808354040283529160200191610826565b820191906000526020600020905b81548152906001019060200180831161080957829003601f168201915b50505050509080600301805461083b906120b7565b80601f0160208091040260200160405190810160405280929190818152602001828054610867906120b7565b80156108b45780601f10610889576101008083540402835291602001916108b4565b820191906000526020600020905b81548152906001019060200180831161089757829003601f168201915b5050505050908060040180546108c9906120b7565b80601f01602080910402602001604051908101604052809291908181526020018280546108f5906120b7565b80156109425780601f1061091757610100808354040283529160200191610942565b820191906000526020600020905b81548152906001019060200180831161092557829003601f168201915b505050505090806005018054610957906120b7565b80601f0160208091040260200160405190810160405280929190818152602001828054610983906120b7565b80156109d05780601f106109a5576101008083540402835291602001916109d0565b820191906000526020600020905b8154815290600101906020018083116109b357829003601f168201915b5050505050908060060180546109e5906120b7565b80601f0160208091040260200160405190810160405280929190818152602001828054610a11906120b7565b8015610a5e5780601f10610a3357610100808354040283529160200191610a5e565b820191906000526020600020905b815481529060010190602001808311610a4157829003601f168201915b505050505090806007018054610a73906120b7565b80601f0160208091040260200160405190810160405280929190818152602001828054610a9f906120b7565b8015610aec5780601f10610ac157610100808354040283529160200191610aec565b820191906000526020600020905b815481529060010190602001808311610acf57829003601f168201915b5050505050905088565b610b01888383611524565b15610b41576040517f08c379a0000000000000000000000000000000000000000000000000000000008152600401610b3890611f0e565b60405180910390fd5b600088604051610b519190611d46565b90815260200160405180910390206040518061010001604052808981526020018881526020018781526020018681526020018a81526020018581526020018481526020018381525090806001815401808255809150506001900390600052602060002090600802016000909190919091506000820151816000019080519060200190610bde9291906116bf565b506020820151816001019080519060200190610bfb9291906116bf565b506040820151816002019080519060200190610c189291906116bf565b506060820151816003019080519060200190610c359291906116bf565b506080820151816004019080519060200190610c529291906116bf565b5060a0820151816005019080519060200190610c6f9291906116bf565b5060c0820151816006019080519060200190610c8c9291906116bf565b5060e0820151816007019080519060200190610ca99291906116bf565b5050506001600089604051610cbe9190611d46565b9081526020016040518091039020805490501415610d1357600188908060018154018082558091505060019003906000526020600020016000909190919091509080519060200190610d119291906116bf565b505b87604051610d219190611d46565b60405180910390207fcd8d3f5d6d56d9a83c9b348f058a350ba9c0b7dbf861903cb4e7f4fe500f590188888888888888604051610d649796959493929190611db8565b60405180910390a25050505050505050565b60606000805b600180549050811015610e0e57600060018281548110610dc5577f4e487b7100000000000000000000000000000000000000000000000000000000600052603260045260246000fd5b90600052602060002001604051610ddc9190611d5d565b90815260200160405180910390208054905082610df99190612015565b91508080610e06906120e9565b915050610d7c565b5060008167ffffffffffffffff811115610e51577f4e487b7100000000000000000000000000000000000000000000000000000000600052604160045260246000fd5b604051908082528060200260200182016040528015610e8a57816020015b610e77611745565b815260200190600190039081610e6f5790505b5090506000805b60018054905081101561146e5760008060018381548110610edb577f4e487b7100000000000000000000000000000000000000000000000000000000600052603260045260246000fd5b90600052602060002001604051610ef29190611d5d565b9081526020016040518091039020905060005b818054905081101561145957818181548110610f4a577f4e487b7100000000000000000000000000000000000000000000000000000000600052603260045260246000fd5b906000526020600020906008020160405180610100016040529081600082018054610f74906120b7565b80601f0160208091040260200160405190810160405280929190818152602001828054610fa0906120b7565b8015610fed5780601f10610fc257610100808354040283529160200191610fed565b820191906000526020600020905b815481529060010190602001808311610fd057829003601f168201915b50505050508152602001600182018054611006906120b7565b80601f0160208091040260200160405190810160405280929190818152602001828054611032906120b7565b801561107f5780601f106110545761010080835404028352916020019161107f565b820191906000526020600020905b81548152906001019060200180831161106257829003601f168201915b50505050508152602001600282018054611098906120b7565b80601f01602080910402602001604051908101604052809291908181526020018280546110c4906120b7565b80156111115780601f106110e657610100808354040283529160200191611111565b820191906000526020600020905b8154815290600101906020018083116110f457829003601f168201915b5050505050815260200160038201805461112a906120b7565b80601f0160208091040260200160405190810160405280929190818152602001828054611156906120b7565b80156111a35780601f10611178576101008083540402835291602001916111a3565b820191906000526020600020905b81548152906001019060200180831161118657829003601f168201915b505050505081526020016004820180546111bc906120b7565b80601f01602080910402602001604051908101604052809291908181526020018280546111e8906120b7565b80156112355780601f1061120a57610100808354040283529160200191611235565b820191906000526020600020905b81548152906001019060200180831161121857829003601f168201915b5050505050815260200160058201805461124e906120b7565b80601f016020809104026020016040519081016040528092919081815260200182805461127a906120b7565b80156112c75780601f1061129c576101008083540402835291602001916112c7565b820191906000526020600020905b8154815290600101906020018083116112aa57829003601f168201915b505050505081526020016006820180546112e0906120b7565b80601f016020809104026020016040519081016040528092919081815260200182805461130c906120b7565b80156113595780601f1061132e57610100808354040283529160200191611359565b820191906000526020600020905b81548152906001019060200180831161133c57829003601f168201915b50505050508152602001600782018054611372906120b7565b80601f016020809104026020016040519081016040528092919081815260200182805461139e906120b7565b80156113eb5780601f106113c0576101008083540402835291602001916113eb565b820191906000526020600020905b8154815290600101906020018083116113ce57829003601f168201915b50505050508152505085858151811061142d577f4e487b7100000000000000000000000000000000000000000000000000000000600052603260045260246000fd5b60200260200101819052508380611443906120e9565b9450508080611451906120e9565b915050610f05565b50508080611466906120e9565b915050610e91565b5081935050505090565b6001818154811061148857600080fd5b9060005260206000200160009150905080546114a3906120b7565b80601f01602080910402602001604051908101604052809291908181526020018280546114cf906120b7565b801561151c5780601f106114f15761010080835404028352916020019161151c565b820191906000526020600020905b8154815290600101906020018083116114ff57829003601f168201915b505050505081565b6000806000856040516115379190611d46565b9081526020016040518091039020905060005b81805490508110156116b157846040516020016115679190611d46565b604051602081830303815290604052805190602001208282815481106115b6577f4e487b7100000000000000000000000000000000000000000000000000000000600052603260045260246000fd5b90600052602060002090600802016006016040516020016115d79190611d5d565b6040516020818303038152906040528051906020012014801561168e5750836040516020016116069190611d46565b60405160208183030381529060405280519060200120828281548110611655577f4e487b7100000000000000000000000000000000000000000000000000000000600052603260045260246000fd5b90600052602060002090600802016007016040516020016116769190611d5d565b60405160208183030381529060405280519060200120145b1561169e576001925050506116b8565b80806116a9906120e9565b91505061154a565b5060009150505b9392505050565b8280546116cb906120b7565b90600052602060002090601f0160209004810192826116ed5760008555611734565b82601f1061170657805160ff1916838001178555611734565b82800160010185558215611734579182015b82811115611733578251825591602001919060010190611718565b5b509050611741919061178a565b5090565b60405180610100016040528060608152602001606081526020016060815260200160608152602001606081526020016060815260200160608152602001606081525090565b5b808211156117a357600081600090555060010161178b565b5090565b60006117ba6117b584611f5f565b611f2e565b9050828152602081018484840111156117d257600080fd5b6117dd848285612075565b509392505050565b600082601f8301126117f657600080fd5b81356118068482602086016117a7565b91505092915050565b60008135905061181e816121d0565b92915050565b60006020828403121561183657600080fd5b600082013567ffffffffffffffff81111561185057600080fd5b61185c848285016117e5565b91505092915050565b600080600080600080600080610100898b03121561188257600080fd5b600089013567ffffffffffffffff81111561189c57600080fd5b6118a88b828c016117e5565b985050602089013567ffffffffffffffff8111156118c557600080fd5b6118d18b828c016117e5565b975050604089013567ffffffffffffffff8111156118ee57600080fd5b6118fa8b828c016117e5565b965050606089013567ffffffffffffffff81111561191757600080fd5b6119238b828c016117e5565b955050608089013567ffffffffffffffff81111561194057600080fd5b61194c8b828c016117e5565b94505060a089013567ffffffffffffffff81111561196957600080fd5b6119758b828c016117e5565b93505060c089013567ffffffffffffffff81111561199257600080fd5b61199e8b828c016117e5565b92505060e089013567ffffffffffffffff8111156119bb57600080fd5b6119c78b828c016117e5565b9150509295985092959890939650565b600080604083850312156119ea57600080fd5b600083013567ffffffffffffffff811115611a0457600080fd5b611a10858286016117e5565b9250506020611a218582860161180f565b9150509250929050565b600060208284031215611a3d57600080fd5b6000611a4b8482850161180f565b91505092915050565b6000611a608383611c65565b905092915050565b6000611a7382611fb4565b611a7d8185611fd7565b935083602082028501611a8f85611f8f565b8060005b85811015611acb5784840389528151611aac8582611a54565b9450611ab783611fca565b925060208a01995050600181019050611a93565b50829750879550505050505092915050565b6000611ae882611fbf565b611af28185611fe8565b9350611b02818560208601612084565b611b0b816121bf565b840191505092915050565b6000611b2182611fbf565b611b2b8185611ff9565b9350611b3b818560208601612084565b611b44816121bf565b840191505092915050565b6000611b5a82611fbf565b611b64818561200a565b9350611b74818560208601612084565b80840191505092915050565b60008154611b8d816120b7565b611b97818661200a565b94506001821660008114611bb25760018114611bc357611bf6565b60ff19831686528186019350611bf6565b611bcc85611f9f565b60005b83811015611bee57815481890152600182019150602081019050611bcf565b838801955050505b50505092915050565b6000611c0c603c83611ff9565b91507f4475706c6963617465207265636f72643a205468697320656e74727920616c7260008301527f656164792065786973747320666f72207468652073747564656e742e000000006020830152604082019050919050565b6000610100830160008301518482036000860152611c838282611add565b91505060208301518482036020860152611c9d8282611add565b91505060408301518482036040860152611cb78282611add565b91505060608301518482036060860152611cd18282611add565b91505060808301518482036080860152611ceb8282611add565b91505060a083015184820360a0860152611d058282611add565b91505060c083015184820360c0860152611d1f8282611add565b91505060e083015184820360e0860152611d398282611add565b9150508091505092915050565b6000611d528284611b4f565b915081905092915050565b6000611d698284611b80565b915081905092915050565b60006020820190508181036000830152611d8e8184611a68565b905092915050565b60006020820190508181036000830152611db08184611b16565b905092915050565b600060e0820190508181036000830152611dd2818a611b16565b90508181036020830152611de68189611b16565b90508181036040830152611dfa8188611b16565b90508181036060830152611e0e8187611b16565b90508181036080830152611e228186611b16565b905081810360a0830152611e368185611b16565b905081810360c0830152611e4a8184611b16565b905098975050505050505050565b6000610100820190508181036000830152611e73818b611b16565b90508181036020830152611e87818a611b16565b90508181036040830152611e9b8189611b16565b90508181036060830152611eaf8188611b16565b90508181036080830152611ec38187611b16565b905081810360a0830152611ed78186611b16565b905081810360c0830152611eeb8185611b16565b905081810360e0830152611eff8184611b16565b90509998505050505050505050565b60006020820190508181036000830152611f2781611bff565b9050919050565b6000604051905081810181811067ffffffffffffffff82111715611f5557611f54612190565b5b8060405250919050565b600067ffffffffffffffff821115611f7a57611f79612190565b5b601f19601f8301169050602081019050919050565b6000819050602082019050919050565b60008190508160005260206000209050919050565b600081519050919050565b600081519050919050565b6000602082019050919050565b600082825260208201905092915050565b600082825260208201905092915050565b600082825260208201905092915050565b600081905092915050565b60006120208261206b565b915061202b8361206b565b9250827fffffffffffffffffffffffffffffffffffffffffffffffffffffffffffffffff038211156120605761205f612132565b5b828201905092915050565b6000819050919050565b82818337600083830152505050565b60005b838110156120a2578082015181840152602081019050612087565b838111156120b1576000848401525b50505050565b600060028204905060018216806120cf57607f821691505b602082108114156120e3576120e2612161565b5b50919050565b60006120f48261206b565b91507fffffffffffffffffffffffffffffffffffffffffffffffffffffffffffffffff82141561212757612126612132565b5b600182019050919050565b7f4e487b7100000000000000000000000000000000000000000000000000000000600052601160045260246000fd5b7f4e487b7100000000000000000000000000000000000000000000000000000000600052602260045260246000fd5b7f4e487b7100000000000000000000000000000000000000000000000000000000600052604160045260246000fd5b6000601f19601f8301169050919050565b6121d98161206b565b81146121e457600080fd5b5056fea26469706673582212206f5a2928e8023f2b18b2c4b42a7d76c76f9ec703447572392929b79a9165448964736f6c63430008000033",
  "immutableReferences": {},
  "source": "// SPDX-License-Identifier: MIT\r\npragma solidity ^0.8.0;\r\n\r\ncontract Student {\r\n    struct StudentData {\r\n        string firstName;\r\n        string lastName;\r\n        string dateOfBirth;\r\n        string email;\r\n        string cne;\r\n        string filiere;\r\n        string anneeUniv;\r\n        string transcript;\r\n    }\r\n\r\n    // Mapping bas sur le CNE pour une liste de donnes\r\n    mapping(string => StudentData[]) public studentRecords;\r\n    string[] public studentCNEs; // Liste des CNEs ajouts (pour itration)\r\n\r\n    event StudentAdded(\r\n        string indexed cne,\r\n        string firstName,\r\n        string lastName,\r\n        string dateOfBirth,\r\n        string email,\r\n        string filiere,\r\n        string anneeUniv,\r\n        string transcript\r\n    );\r\n\r\n    // Vrifier si un enregistrement existe dj\r\n    function isDuplicate(\r\n        string memory _cne,\r\n        string memory _anneeUniv,\r\n        string memory _transcript\r\n    ) internal view returns (bool) {\r\n        StudentData[] storage records = studentRecords[_cne];\r\n        for (uint i = 0; i < records.length; i++) {\r\n            if (\r\n                keccak256(abi.encodePacked(records[i].anneeUniv)) == keccak256(abi.encodePacked(_anneeUniv)) &&\r\n                keccak256(abi.encodePacked(records[i].transcript)) == keccak256(abi.encodePacked(_transcript))\r\n            ) {\r\n                return true; // Enregistrement dj existant\r\n            }\r\n        }\r\n        return false; // Pas de doublon trouv\r\n    }\r\n\r\n    // Ajouter un tudiant\r\n    function addStudent(\r\n        string memory _cne,\r\n        string memory _firstName,\r\n        string memory _lastName,\r\n        string memory _dateOfBirth,\r\n        string memory _email,\r\n        string memory _filiere,\r\n        string memory _anneeUniv,\r\n        string memory _transcript\r\n    ) public {\r\n        // Vrifier si l'enregistrement est unique\r\n        require(\r\n            !isDuplicate(_cne, _anneeUniv, _transcript),\r\n            \"Duplicate record: This entry already exists for the student.\"\r\n        );\r\n\r\n        // Ajouter les donnes de l'tudiant comme un nouveau bloc\r\n        studentRecords[_cne].push(\r\n            StudentData({\r\n                firstName: _firstName,\r\n                lastName: _lastName,\r\n                dateOfBirth: _dateOfBirth,\r\n                email: _email,\r\n                cne: _cne,\r\n                filiere: _filiere,\r\n                anneeUniv: _anneeUniv,\r\n                transcript: _transcript\r\n            })\r\n        );\r\n\r\n        // Ajouter  la liste des CNEs si c'est la premire entre pour ce CNE\r\n        if (studentRecords[_cne].length == 1) {\r\n            studentCNEs.push(_cne);\r\n        }\r\n\r\n        emit StudentAdded(_cne, _firstName, _lastName, _dateOfBirth, _email, _filiere, _anneeUniv, _transcript);\r\n    }\r\n\r\n    // Rcuprer les blocs pour un CNE donn\r\n    function getStudentRecords(string memory _cne) public view returns (StudentData[] memory) {\r\n        return studentRecords[_cne];\r\n    }\r\n\r\n    // Rcuprer tous les tudiants avec leur historique\r\n    function getAllStudents() public view returns (StudentData[] memory) {\r\n        uint totalRecords = 0;\r\n\r\n        // Calculer le nombre total de blocs\r\n        for (uint i = 0; i < studentCNEs.length; i++) {\r\n            totalRecords += studentRecords[studentCNEs[i]].length;\r\n        }\r\n\r\n        // Crer un tableau pour contenir tous les blocs\r\n        StudentData[] memory allStudents = new StudentData[](totalRecords);\r\n        uint index = 0;\r\n\r\n        for (uint i = 0; i < studentCNEs.length; i++) {\r\n            StudentData[] storage records = studentRecords[studentCNEs[i]];\r\n            for (uint j = 0; j < records.length; j++) {\r\n                allStudents[index] = records[j];\r\n                index++;\r\n            }\r\n        }\r\n\r\n        return allStudents;\r\n    }\r\n}\r\n",
  "sourcePath": "C:\\Users\\khabb\\Bureau\\S5\\matiere au choix\\projet\\educhain\\contracts\\Student.sol",
  "compiler": {
    "name": "solc",
    "version": "0.8.0+commit.c7dfd78e.Emscripten.clang"
  },
  "schemaVersion": "3.4.16",
  "updatedAt": "2024-11-24T13:55:32.325Z",
  "devdoc": {
    "kind": "dev",
    "methods": {},
    "version": 1
  },
  "userdoc": {
    "kind": "user",
    "methods": {},
    "version": 1
  }
}